:020000040800F2
:10000000000002202D410008693B0008713B0008F8
:10001000733B0008753B0008773B000800000000B8
:10002000000000000000000000000000D9150008DA
:10003000793B000800000000F9150008FD150008D4
:100040007D4100087D4100087D4100087D41000898
:100050007D4100087D4100087D4100087D41000888
:100060007D4100087D4100087D4100087D41000878
:100070007D4100087D4100087D4100087D41000868
:100080007D4100087D4100087D4100087D41000858
:100090007D4100087D4100087D4100087D41000848
:1000A0007D4100087D4100087D4100087D41000838
:1000B0007D4100087D4100087D4100087D41000828
:1000C0007D4100087D4100087D4100087D41000818
:1000D0007D4100087D410008011F00087D410008A6
:1000E0007D4100087D4100087D4100087D410008F8
:1000F0007D4100087D4100087D4100087D410008E8
:100100007D4100087D4100087D4100087D410008D7
:100110007D4100087D4100087D4100087D410008C7
:100120007D4100087D4100087D4100087D410008B7
:100130007D4100087D4100087D4100087D410008A7
:100140007D4100087D4100087D4100087D41000897
:100150007D4100087D4100087D4100087D41000887
:100160007D4100087D4100087D4100087D41000877
:100170007D4100087D4100087D410008000000002D
:080180007D4100087D410008EB
:1001880081F0004102E000BF83F0004330B54FEA40
:1001980041044FEA430594EA050F08BF90EA020FAD
:1001A8001FBF54EA000C55EA020C7FEA645C7FEA40
:1001B800655C00F0E2804FEA5454D4EB5555B8BF63
:1001C8006D420CDD2C4480EA020281EA030382EAD4
:1001D800000083EA010180EA020281EA0303362D66
:1001E80088BF30BD11F0004F4FEA01314FF4801C39
:1001F8004CEA113102D0404261EB410113F0004F4B
:100208004FEA03334CEA133302D0524263EB430301
:1002180094EA050F00F0A780A4F10104D5F1200E9F
:100228000DDB02FA0EFC22FA05F2801841F10001FA
:1002380003FA0EF2801843FA05F359410EE0A5F1CE
:1002480020050EF1200E012A03FA0EFC28BF4CF0FF
:10025800020C43FA05F3C01851EBE37101F00045B5
:1002680007D54FF0000EDCF1000C7EEB00006EEBC2
:100278000101B1F5801F1BD3B1F5001F0CD349084C
:100288005FEA30004FEA3C0C04F101044FEA4452A3
:1002980012F5800F80F09A80BCF1004F08BF5FEA2A
:1002A800500C50F1000041EB045141EA050130BD0A
:1002B8005FEA4C0C404141EB0101013C28BFB1F51C
:1002C800801FE9D291F0000F04BF01460020B1FA67
:1002D80081F308BF2033A3F10B03B3F120020CDA3A
:1002E8000C3208DD02F1140CC2F10C0201FA0CF018
:1002F80021FA02F10CE002F11402D8BFC2F1200C7D
:1003080001FA02F120FA0CFCDCBF41EA0C01904032
:10031800E41AA2BF01EB0451294330BD6FEA04047B
:100328001F3C1CDA0C340EDC04F11404C4F1200266
:1003380020FA04F001FA02F340EA030021FA04F378
:1003480045EA030130BDC4F10C04C4F1200220FACF
:1003580002F001FA04F340EA0300294630BD21FA0D
:1003680004F0294630BD94F0000F83F4801306BFD3
:1003780081F480110134013D4EE77FEA645C18BFC7
:100388007FEA655C29D094EA050F08BF90EA020F5E
:1003980005D054EA000C04BF1946104630BD91EA56
:1003A800030F1EBF0021002030BD5FEA545C05D159
:1003B8004000494128BF41F0004130BD14F5800498
:1003C8003CBF01F5801130BD01F0004545F0FE410C
:1003D80041F470014FF0000030BD7FEA645C1ABF41
:1003E800194610467FEA655C1CBF0B46024650EA78
:1003F800013406BF52EA033591EA030F41F40021A4
:1004080030BD00BF90F0000F04BF0021704730B529
:100418004FF4806404F132044FF000054FF00001FE
:1004280050E700BF90F0000F04BF0021704730B5BF
:100438004FF4806404F1320410F0004548BF404294
:100448004FF000013EE700BF42004FEAE2014FEAE9
:1004580031014FEA02701FBF12F07F4393F07F4FC4
:1004680081F06051704732F07F4208BF704793F0C7
:100478007F4F04BF41F40021704730B54FF46074DA
:1004880001F0004521F000411CE700BF50EA0102DD
:1004980008BF704730B54FF000050AE050EA010286
:1004A80008BF704730B511F0004502D5404261EBF6
:1004B80041014FF4806404F132045FEA915C3FF437
:1004C800D8AE4FF003025FEADC0C18BF03325FEAD4
:1004D800DC0C18BF033202EBDC02C2F1200300FA85
:1004E80003FC20FA02F001FA03FE40EA0E0021FAAA
:1004F80002F11444BDE600BF70B54FF0FF0C4CF498
:10050800E06C1CEA11541DBF1CEA135594EA0C0F49
:1005180095EA0C0F00F0DEF82C4481EA030621EA84
:100528004C5123EA4C5350EA013518BF52EA0335BF
:1005380041F4801143F4801338D0A0FB02CE4FF071
:100548000005E1FB02E506F00042E0FB03E54FF0A1
:100558000006E1FB03569CF0000F18BF4EF0010E99
:10056800A4F1FF04B6F5007F64F5407404D25FEA95
:100578004E0E6D4146EB060642EAC62141EA555148
:100588004FEAC52040EA5E504FEACE2EB4F1FD0C8A
:1005980088BFBCF5E06F1ED8BEF1004F08BF5FEA08
:1005A800500E50F1000041EB045170BD06F00046BA
:1005B80046EA010140EA020081EA0301B4EB5C0467
:1005C800C2BFD4EB0C0541EA045170BD41F480115F
:1005D8004FF0000E013C00F3AB8014F1360FDEBF84
:1005E800002001F0004170BDC4F10004203C35DA60
:1005F8000C341BDC04F11404C4F1200500FA05F3E3
:1006080020FA04F001FA05F240EA020001F0004283
:1006180021F0004110EBD37021FA04F642EB0601F9
:100628005EEA430E08BF20EAD37070BDC4F10C0423
:10063800C4F1200500FA04F320FA05F001FA04F2E7
:1006480040EA020001F0004110EBD37041F10001D3
:100658005EEA430E08BF20EAD37070BDC4F12005DE
:1006680000FA05F24EEA020E20FA04F301FA05F246
:1006780043EA020321FA04F001F0004121FA04F2EE
:1006880020EA020000EBD3705EEA430E08BF20EABE
:10069800D37070BD94F0000F0FD101F000464000F8
:1006A80041EB010111F4801F08BF013CF7D041EA7A
:1006B800060195F0000F18BF704703F0004652007E
:1006C80043EB030313F4801F08BF013DF7D043EA4F
:1006D8000603704794EA0C0F0CEA135518BF95EA05
:1006E8000C0F0CD050EA410618BF52EA4306D1D18C
:1006F80081EA030101F000414FF0000070BD50EAAB
:10070800410606BF1046194652EA430619D094EA34
:100718000C0F02D150EA013613D195EA0C0F05D11E
:1007280052EA03361CBF104619460AD181EA030172
:1007380001F0004141F0FE4141F470014FF000002A
:1007480070BD41F0FE4141F4780170BD70B54FF0C5
:10075800FF0C4CF4E06C1CEA11541DBF1CEA135545
:1007680094EA0C0F95EA0C0F00F0A7F8A4EB050427
:1007780081EA030E52EA03354FEA013100F088801E
:100788004FEA03334FF0805545EA131343EA1263E7
:100798004FEA022245EA111545EA10654FEA00269C
:1007A8000EF000419D4208BF964244F1FD0404F555
:1007B800407402D25B084FEA3202B61A65EB0305B1
:1007C8005B084FEA32024FF480104FF4002CB6EB6E
:1007D800020E75EB030E22BFB61A754640EA0C00EE
:1007E8005B084FEA3202B6EB020E75EB030E22BF2E
:1007F800B61A754640EA5C005B084FEA3202B6EB6F
:10080800020E75EB030E22BFB61A754640EA9C002D
:100818005B084FEA3202B6EB020E75EB030E22BFFD
:10082800B61A754640EADC0055EA060E18D04FEABB
:10083800051545EA16754FEA06164FEAC30343EA5B
:1008480052734FEAC2025FEA1C1CC0D111F4801F28
:100858000BD141EA00014FF000004FF0004CB6E721
:1008680011F4801F04BF01430020B4F1FD0C88BFC0
:10087800BCF5E06F3FF6AFAEB5EB030C04BFB6EBCB
:10088800020C5FEA500C50F1000041EB045170BDBE
:100898000EF0004E4EEA113114EB5C04C2BFD4EBEB
:1008A8000C0541EA045170BD41F480114FF0000E6F
:1008B800013C90E645EA060E8DE60CEA135594EAEB
:1008C8000C0F08BF95EA0C0F3FF43BAF94EA0C0FEE
:1008D8000AD150EA01347FF434AF95EA0C0F7FF463
:1008E80025AF104619462CE795EA0C0F06D152EAB7
:1008F80003353FF4FDAE1046194622E750EA41069B
:1009080018BF52EA43067FF4C5AE50EA41047FF4AB
:100918000DAF52EA43057FF4EBAE12E74FF0FF3C10
:1009280006E000BF4FF0010C02E000BF4FF0010CE1
:100938004DF804CD4FEA410C7FEA6C5C4FEA430C5A
:1009480018BF7FEA6C5C1BD001B050EA410C0CBFA9
:1009580052EA430C91EA030F02BF90EA020F00200B
:10096800704710F1000F91EA030F58BF994208BF72
:1009780090422CBFD8176FEAE37040F0010070472F
:100988004FEA410C7FEA6C5C02D150EA013C07D186
:100998004FEA430C7FEA6C5CD6D152EA033CD3D0D1
:1009A8005DF8040B704700BF8446104662468C46CB
:1009B8001946634600E000BF01B5FFF7B7FF0028FE
:1009C80048BF10F1000F01BD4DF808EDFFF7F4FF27
:1009D8000CBF012000205DF808FB00BF4DF808EDB2
:1009E800FFF7EAFF34BF012000205DF808FB00BFD5
:1009F8004DF808EDFFF7E0FF94BF012000205DF8F7
:100A080008FB00BF4DF808EDFFF7CEFF94BF0120AB
:100A180000205DF808FB00BF4DF808EDFFF7C4FFA4
:100A280034BF012000205DF808FB00BF4FEA4102F7
:100A380012F5001215D211D56FF47873B3EB625228
:100A480012D94FEAC12343F0004343EA505311F04F
:100A5800004F23FA02F018BF404270474FF00000E1
:100A6800704750EA013005D111F0004008BF6FF01F
:100A7800004070474FF00000704700BF4A0011D295
:100A880012F5001211D20DD56FF47873B3EB6252E0
:100A98000ED44FEAC12343F0004343EA505323FAEC
:100AA80002F070474FF00000704750EA013002D161
:100AB8004FF0FF3070474FF00000704753B94AB904
:100AC800002908BF00281CBF4FF0FF314FF0FF304E
:100AD80000F00CB8ADF1080C6DE904CE03F06AFB28
:100AE800DDF804E0DDE9022304B07047704700BF79
:100AF8000348044B834202D0034B03B118477047A5
:100B08001001002010010020000000000548064BDD
:100B18001B1AD90F01EBA301491002D0034B03B1F3
:100B28001847704710010020100100200000000045
:100B380010B5064C237843B9FFF7DAFF044B13B11D
:100B48000448AFF300800123237010BD100100207A
:100B5800000000001848000808B5054B1BB10549FE
:100B68000548AFF30080BDE80840FFF7CFBF00BFDE
:100B780000000000140100201848000800B500F02B
:100B88000700C0F1070CBCF1040F28BF4FF0040C9C
:100B9800031D062B0FD9C31E4FF0FF3E0EFA0CF0B3
:100BA80021EA000199400EFA03FE22EA0E0241EA08
:100BB80002005DF804FB0023EEE70000BFF34F8F4F
:100BC8000549CA6802F4E062044B1343CB60BFF3E3
:100BD8004F8F00BFFDE700BF00ED00E00400FA05FD
:100BE80090F828305BB291F8280040B29842D4BF00
:100BF800002001207047036A086A984294BF0020C9
:100C08000120704703230373BFF34F8FBFF36F8F28
:100C18000268436853601A6000230370437083704E
:100C2800C370037143718371C37100604060094AE6
:100C38009368013B9360BFF34F8FBFF36F8F41B150
:100C480041600B6803600B68586008608B6801336B
:100C58008B607047A800002010B5074C3422002193
:100C6800201D03F0E9FC0023636204F12802A2625C
:100C7800E2622363636310BD0000002000B583B007
:100C8800009313460A460146024802F037FF00BFA8
:100C9800FDE700BF4448000808B50B78622B11D067
:100CA8000AD8422B0ED0532B08D10A4802F026FF4F
:100CB800094802F023FF0BE0732BF6D0074802F037
:100CC8001DFF05E0064802F019FF064802F016FF6E
:100CD80008BD00BFA0480008B8480008E048000860
:100CE800604800087848000808B501460020FFF76A
:100CF800D3FF08BD08B5024802F000FFFFF75EFF0A
:100D08002049000830B583B00C4601F1380509E0E8
:100D180094E8030002AB03E903000146034802F02C
:100D2800EDFE0834AC42F3D103B030BD34490008BD
:100D380008B5024802F0E2FE08BD00BF3C490008C1
:100D480010B582B072B6164CBFF35B8F54E8003F03
:100D5800013344E80032002AF8D1BFF35B8F114B0E
:100D68000193114B0093114B114A1249124802F09A
:100D7800C5FEBFF35B8F54E8003F013B44E80032F7
:100D8800002AF8D1BFF35B8FBFF35B8F2368BFF3F3
:100D98005B8F002B01DD02B010BD62B6FBE700BF20
:100DA80088430020084A00081C4A000858490008DF
:100DB80064490008704900087C49000830B583B0D0
:100DC8000C46BFF35B8F0D6CBFF35B8F01EBC50562
:100DD80009E094E8030002AB03E903000146044874
:100DE80002F08CFE0834AC42F3D103B030BD00BF32
:100DF8003449000810B5084802F080FE074C08493D
:100E08002046FFF77FFF07492046FFF7D7FF064830
:100E180002F074FE10BD00BF284A0008300300200D
:100E28004C4D0008340300202C4A0008002393424C
:100E380011D210B4C45C11F803C0644505D144B1A3
:100E480001339342F6D3002001E0A4EB0C0010BC60
:100E580070470020FBE700207047002303704370B1
:100E68008370C370037143718371C3710060406004
:100E7800C37B5BB2022B00D0704710B504460069F3
:100E880008B103F07AF9237C00232374627C63742D
:100E9800A27CA374E27CE37410BDF0B585B006466D
:100EA8000D461746DDF829C001AC0AAA07CA03C4D3
:100EB8002270CCF800C0CCF804C000228CF80820BE
:100EC8008CF809208CF80A208CF80B208CF80C2060
:100ED8004FF0FF3E8CF80DE08CF80EE001AC03CC2F
:100EE800CCF80F00CCF8131021788CF817108CF878
:100EF80018208CF819208CF81A208CF81B20322125
:100F08008CF81C108CF81D208CF81E208CF81F20E3
:100F18008CF820E08CF821E08CF822E08CF823E0B3
:100F28008CF824E08CF825E08CF826E08CF827E093
:100F38008CF828708CF829E00CF12A02CCF82A20C9
:100F4800CCF82E20CCF83260CCF83650CCF83A30B9
:100F5800604605B0F0BD000008B572B6244BBFF37B
:100F68005B8F53E800CF0CF1010C43E800C2002A64
:100F7800F7D1BFF35B8F012816D0022822D00020BA
:100F88001B4BBFF35B8F53E8002F013A43E8002166
:100F98000029F8D1BFF35B8FBFF35B8F1B68BFF3EA
:100FA8005B8F002B22DD08BD1248134B984207D0F7
:100FB8000368002BE4D09842E2D000F58060F4E7A3
:100FC8000020DDE7B1F1FF3F05D06FF060439942A3
:100FD80007D2880007E0094B094A2A210948FFF788
:100FE8004DFE4FF0FF3003F0DBF8C9E762B6DAE7F1
:100FF800884300208803002088430020304A0008E6
:10100800404A0008484A000808B572B6224BBFF3A8
:101018005B8F53E8001F013143E80012002AF8D122
:10102800BFF35B8F19E01D4A5068BFF34F8FBFF3C2
:101038006F8F016843684B60196000230370437029
:101048008370C370037143718371C3710060406022
:101058009368013B9360FFF700FF104B9B68002BE0
:10106800E1D10F4A536843F0805353600A4BBFF3F2
:101078005B8F53E8002F013A43E800210029F8D19B
:10108800BFF35B8FBFF35B8F1B68BFF35B8F002BD6
:1010980000DD08BD62B6FCE788430020840000201C
:1010A80000ED00E008B5FFF7AFFFFCE710B5037BE4
:1010B8005BB2022B21D0037B5BB2012B1DD0036AEC
:1010C8001BB1037B5BB2032B4AD0BFF34F8FBFF337
:1010D8006F8F0268436853601A600023037043707F
:1010E8008370C370037143718371C3710060406082
:1010F800354A9368013B936016E0BFF34F8FBFF307
:101108006F8F0268436853601A600023037043704E
:101118008370C370037143718371C3710060406051
:101128002A4A9368013B936000230373B0F90D309A
:101138004FEA531CDB4303F01F03254C54F82C20C3
:10114800012101FA03F322EA030344F82C30214B6E
:10115800214A934222D01A68824219D00433F7E711
:10116800BFF34F8FBFF36F8F0268436853601A60F5
:101178000023037043708370C370037143718371DC
:10118800C37100604060154A9368013B9360CBE7E8
:1011980000221A600F4A136C013B1364C37B5BB2D5
:1011A800022B0ED1BFF34F8FBFF36F8F0C4B4360F1
:1011B8001A6802601A68506018609A6801329A606A
:1011C80010BDFFF74AFEFBE79C000020A8000020A6
:1011D800840300203C0000207C00002090000020B8
:1011E8008400002010B5EFF310832BBB044672B6C1
:1011F800264BBFF35B8F53E8001F013143E8001211
:10120800002AF8D1BFF35B8F14B1237B5BB2CBB953
:101218001E4BBFF35B8F53E8002F013A43E80021D0
:101228000029F8D1BFF35B8FBFF35B8F1B68BFF357
:101238005B8F002B28DD10BD154B164A6721164819
:10124800FFF71CFD2046FFF731FF144B1B689C423B
:1012580014D00E4BBFF35B8F53E8002F013A43E8DD
:1012680000210029F8D1BFF35B8FBFF35B8F1B68A8
:10127800BFF35B8F002BDEDC62B6DCE7084A5368FD
:1012880043F080535360C3E762B6D4E78843002035
:10129800744A0008884A0008944A0008800300201D
:1012A80000ED00E008B5024B1868FFF79BFF08BD8A
:1012B8008003002010B50C46D1F83A10034802F01C
:1012C8001DFC2046FFF78EFF10BD00BFC04A000876
:1012D80010B5EFF3108373BB044672B6274BBFF308
:1012E8005B8F53E8000F013043E80002002AF8D171
:1012F800BFF35B8F5CB3237B5BB2032B27D0204605
:10130800FFF780FC1E4B1B689C421BD01B4BBFF396
:101318005B8F53E8002F013A43E800210029F8D1F8
:10132800BFF35B8FBFF35B8F1B68BFF35B8F002B33
:1013380020DC62B61EE0134B134A4FF4A271134827
:10134800FFF79CFC124A536843F0805353600B4BE1
:10135800BFF35B8F53E8002F013A43E800210029CF
:10136800F8D1BFF35B8FBFF35B8F1B68BFF35B8F55
:10137800002B00DD10BD62B6FCE700BF88430020EB
:1013880080030020744A0008E04A0008944A0008D4
:1013980000ED00E010B50C46D1F83A10034802F011
:1013A800ADFB03492046FFF793FF10BDEC4A000848
:1013B8009C00002030B583B004460846B4F90D10EF
:1013C800D4F83A2094F828305BB294F80CC04FFA5D
:1013D8008CFCBCF1030F20D8DFE80CF01D02211BA8
:1013E800104DD4F810C0D4F814E00CEB8E0CD4F8DF
:1013F80008E0ACEB0E0C0CEB8C0C0CEB8C0C646961
:101408000F3CBCFBF4F40194009502F077FB03B0A9
:1014180030BD054DE5E7054DE3E7054DE1E7054D31
:10142800DFE700BF084B0008184B0008204B0008F6
:101438002C4B0008104B000810B572B61A4BBFF3BE
:101448005B8F53E8001F013143E80012002AF8D1EE
:10145800BFF35B8F154802F051FB154C00E00434D4
:10146800144B9C4207D02368002BF8D020681249FF
:10147800FFF7A0FFF3E70D4802F040FB0A4BBFF36C
:101488005B8F53E8002F013A43E800210029F8D187
:10149800BFF35B8FBFF35B8F1B68BFF35B8F002BC2
:1014A80000DD10BD62B6FCE788430020344B00081D
:1014B8003C0000207C0000205C4B000808B5FFF7CA
:1014C800BBFF08BD08B5EFF31083ABBB014672B68E
:1014D8002C4BBFF35B8F53E8000F013043E8000249
:1014E800002AF8D1BFF35B8F01F10C03BFF35B8FC8
:1014F80053E8000F013843E80002002AF8D1BFF38F
:101508005B8FBFF35B8FCB68BFF35B8F002B19DB5F
:101518001C4BBFF35B8F53E8002F013A43E80021CF
:101528000029F8D1BFF35B8FBFF35B8F1B68BFF354
:101538005B8F002B24DD08BD134B144A252114486A
:10154800FFF79CFB134B1868FFF75CFB124A5368C4
:1015580043F0805353600B4BBFF35B8F53E8002F6E
:10156800013A43E800210029F8D1BFF35B8FBFF3AC
:101578005B8F1B68BFF35B8F002BDCDC62B6DAE79E
:1015880062B6D8E788430020744A00087C4B0008FC
:10159800844B00088003002000ED00E000DF00001D
:1015A80072B6EFF30980094B1A6820E9F00F9060D2
:1015B80008B500F0BBFBBDE8084019688868B0E8CA
:1015C800F00F80F3098862B670470000800300209E
:1015D80072B6064B19688868B0E8F00F80F309887E
:1015E8004FF000004EF00D0E62B6704780030020E9
:1015F800FFF7D6BF72B62A4BBFF35B8F53E8001FC5
:10160800013143E80012002AF8D1BFF35B8F254A65
:10161800136801331360244B1B7863B3234B1B6897
:10162800DB69322B1DD8214B1A68D369013BD36182
:101638001F4A536843F080535360194BBFF35B8FC5
:1016480053E8002F013A43E800210029F8D1BFF3FD
:101658005B8FBFF35B8F1B68BFF35B8F002B08DDCD
:101668007047124B1B6800221A775A779A77DA77F5
:10167800DEE762B670470A4BBFF35B8F53E8002F73
:10168800013A43E800210029F8D1BFF35B8FBFF38B
:101698005B8F1B68BFF35B8F002BE1DC62B6DFE773
:1016A800884300207C03002078030020800300206A
:1016B80000ED00E008B5034608461A681268895C20
:1016C800202900D031B95B681968FFF7AFFB18B95A
:1016D800012008BD0020FCE70020FAE710B584B01F
:1016E8000C4601680B4600E001331A78002AFBD14A
:1016F8005B1A039303AB0193029000E00134237853
:10170800202BFBD0214601A8FFF7D4FF40B1039B53
:10171800E01800E001300378202BFBD004B010BDA6
:101728000020FBE730B591B0324B1A6C42F400321E
:101738001A641A6C02F400320292029A1A6B42F08E
:1017480008021A631B6B03F008030193019B09ADA0
:10175800002409946C60AC60EC602C616C61AC6135
:1017680003A903944C608C60CC600C614C616023CD
:1017780003930223049303230593072308931E4826
:1017880002F04EFB1D4BD86822462146C0F30220CA
:10179800FFF7F4F90001C0B2194B83F82603402281
:1017A8005A604FF4E13309930A940B940C940C2378
:1017B8000D930E940F94134C2946204602F052FCC8
:1017C800236923F490432361636923F02A03636147
:1017D800E36843F40053E360EFF31082012383F3DB
:1017E8001088E36843F02003E36082F3108811B0A7
:1017F80030BD00BF00380240000C024000ED00E0A0
:1018080000E100E00044004000B589B002A90023CF
:1018180002934B608B60CB600B614B610A4B1A6B78
:1018280042F001021A631B6B03F001030193019B51
:10183800064802238361029301230393069302F06F
:10184800EFFA09B05DF804FB0038024000000240DE
:10185800034B1A68136813F0800FFBD05060704771
:101868000000002008B502F0B3F90D4B1B680D4AC3
:10187800A2FB03239B09013BB3F1807F0AD24FF0FF
:10188800E0225361084BF02183F823100023936171
:1018980007231361FFF7B8FFFFF744FF08BD00BF38
:1018A800B4000020D34D621000ED00E0002313B116
:1018B8004FF0FF30704750F82320B2F1FF3F01D1BD
:1018C8000133F4E750F82300C043B0FA80F000EB8E
:1018D80043107047BFF35B8F036ABFF35B8F63B13D
:1018E800002302E00022C25401331F2BFAD9BFF3B0
:1018F8005B8F00230362BFF35B8F704710B502E074
:101908001348FFF7E7FF134C2046FFF7DBFDBFF353
:101918005B8F54F8043CBFF35B8F002BF3D0BFF30D
:101928005B8F231F1B68BFF35B8F002BE8D0231F3F
:10193800BFF35B8F53E8002F013A43E800210029E9
:10194800F8D1BFF35B8F243B134400221A71D7E709
:10195800040000202800002008B50020FFF7CEFF73
:1019680070B50D46174802F0C9F82B781BB970BD41
:1019780062689047FBE7144C144B9C4207D02946F9
:101988002046FFF7ABFE0028F2D10834F4E7BFF396
:101998005B8F0F4C54F84069BFF35B8F04EBC606AE
:1019A800B44209D029462046FFF798FE08B9083402
:1019B800F6E762689047DAE72946064802F09EF89B
:1019C800D5E700BFB04B00084C4D0008844D000817
:1019D80074030020B84B000800B583B0044600200B
:1019E800FFF7AEF9FFF728FD019404F12400FFF793
:1019F80069FD21460348FFF7B3FF2046FFF76AFF5A
:101A0800F2E700BF2C030020F8B506460D4617463E
:101A1800446800E06468A64204D029462046B847D6
:101A28000028F7D1BFF34F8FBFF36F8F44B16C60BD
:101A380023682B6023685D602560B3680133B36059
:101A4800F8BD000010B50346084603211973BFF31B
:101A58004F8FBFF36F8F1C68596861600C604FF03F
:101A6800000C83F800C083F801C083F802C083F833
:101A780003C083F804C083F805C083F806C083F860
:101A880007C01B605B60044CA1680139A16019465E
:101A9800FFF7BAFF10BD00BFA800002010B5EFF394
:101AA80010837BBB044672B6274BBFF35B8F53E8AA
:101AB80000CF0CF1010C43E800C00028F7D1BFF3B8
:101AC8005B8F5CB3237B5BB2032B27D02046FFF7E9
:101AD800B9FF1E4B1B689C421BD01B4BBFF35B8F8F
:101AE80053E8002F013A43E800210029F8D1BFF359
:101AF8005B8FBFF35B8F1B68BFF35B8F002B20DC12
:101B080062B61EE0124B134A40F255111248FFF715
:101B1800B5F8124A536843F0805353600A4BBFF339
:101B28005B8F53E8002F013A43E800210029F8D1E0
:101B3800BFF35B8FBFF35B8F1B68BFF35B8F002B1B
:101B480000DD10BD62B6FCE788430020800300205A
:101B5800744A0008D84B0008944A000800ED00E0D9
:101B680008B50246054B1868054B1B681344036209
:101B7800044A0549FFF792FF08BD00BF8003002013
:101B88007C030020FF0B00089000002008B50749DF
:101B98004B691A0402F40032DB4303F002031343D7
:101BA8008B61034B1868FFF7DBFFF0E7000002408A
:101BB8003800002008B50020FFF7E8FF08B501232A
:101BC8000373BFF34F8FBFF36F8F0268436853608F
:101BD8001A600023037043708370C37003714371EC
:101BE8008371C371006040608B68013B8B60034A5E
:101BF80001460348FFF708FF08BD00BFE90B0008CE
:101C0800A8000020164B5868154B984225D0036A47
:101C1800144A12689A4221D310B590F820304FF038
:101C2800FF3380F8203090F8212080F8213090F898
:101C3800222080F8223090F8232080F82330084CA6
:101C48002146FFF7BBFF6068054B984204D0036A42
:101C5800044A12689A42E0D210BD7047704700BF2C
:101C6800900000207C03002010B582B001A8FFF787
:101C7800C9FF2B4B59682B4B1B685C681A7B52B207
:101C880052B31A7B52B2032A26D091F8280040B2E8
:101C980093F8282052B290422ADBDA6932BB32200C
:101CA80018775A779A77DA7701221A731C4A94427E
:101CB80007D094F8282052B293F828305BB29A42A1
:101CC80023D002230B73174B19601B68B3F90D302F
:101CD800154AA2F8443009E002230B73114B19602E
:101CE8001B68B3F90D30104AA2F8443002B010BD99
:101CF80001221A7302230B730A4B19601B68B3F98C
:101D08000D30094AA2F84430F0E702232373054B4B
:101D18001C601B68B3F90D30034AA2F84430E5E7AC
:101D2800A8000020800300203C00002008B5FFF731
:101D38009BFF08BD08B5EFF3108333BB72B6294B80
:101D4800BFF35B8F53E800CF0CF1010C43E800C2EE
:101D5800002AF7D1BFF35B8F18B1037B5BB2032B6B
:101D68001AD0204BBFF35B8F53E8002F013A43E8AA
:101D780000210029F8D1BFF35B8FBFF35B8F1B688D
:101D8800BFF35B8F002B2ADD08BD174B174A40F2C3
:101D980075111748FEF772FFFFF710FF154B1B6808
:101DA800154A52689A4205D0144A536843F0805342
:101DB8005360D6E70B4BBFF35B8F53E8002F013A14
:101DC80043E800210029F8D1BFF35B8FBFF35B8F95
:101DD8001B68BFF35B8F002BD6DC62B6D4E762B614
:101DE800D2E700BF88430020744A0008EC4B000883
:101DF800944A000880030020A800002000ED00E0BD
:101E080010B50C46D1F83A10034801F077FE0349A3
:101E18002046FFF78FFF10BDF44B00089C00002000
:101E280003681B6813F0200F00D1704710B572B615
:101E38002F4BBFF35B8F53E8001F013143E80012BB
:101E4800002AF8D1BFF35B8F034653F8242B52685E
:101E5800D2B2BFF35B8F416ABFF35B8F1F293EDCB1
:101E68000A2A21D0BFF35B8F53E8001F4C1C43E8BC
:101E7800004CBCF1000FF7D1BFF35B8F01440A712E
:101E88001B4BBFF35B8F53E8002F013A43E8002157
:101E98000029F8D1BFF35B8FBFF35B8F1B68BFF3DB
:101EA8005B8F002B22DD10BD00F13404BFF35B8F84
:101EB800436BBFF35B8F002B0BDBBFF35B8F54E8E7
:101EC800003F013344E80032002AF8D1BFF35B8FAA
:101ED800D6E700F12801C06AFFF770FEEDE704308D
:101EE800FFF7F8FC034801F009FEC9E762B6DAE734
:101EF80088430020104C000800B583B001A90348AE
:101F0800FFF78EFF03B05DF804FB00BF0000002060
:101F1800D1F83A10026801E0013101320B7813B1AF
:101F280010788342F8D01078834214BF0020012033
:101F38007047000010B582B072B61B4BBFF35B8FC1
:101F480053E8001F013143E80012002AF8D1BFF31B
:101F58005B8F0190154C00E00434154B9C420AD06D
:101F68002368002BF8D0216801A8FFF7D1FF0028CB
:101F7800F2D0206800E000200B4BBFF35B8F53E8E2
:101F8800002F013A43E800210029F8D1BFF35B8F05
:101F9800BFF35B8F1B68BFF35B8F002B01DD02B0C3
:101FA80010BD62B6FBE700BF884300203C0000205C
:101FB8007C00002038B503780BB9904738BD04463B
:101FC8000D46FFF7B7FF014618B12846FFF718FF7F
:101FD800F4E72146014801F091FDEFE76C4C000859
:101FE80000B583B0034A01A9FFF7E4FF03B05DF829
:101FF80004FB00BF390D000838B503780BB99047CA
:1020080038BD04460D46FFF795FF014618B128462E
:10201800FFF7C0F9F4E72146014801F06FFDEFE74B
:102028006C4C000800B583B0034A01A9FFF7E4FF30
:1020380003B05DF804FB00BF390D000838B503781C
:102048000BB9904738BD04460D46FFF773FF0146AC
:1020580018B12846FFF72EF9F4E72146014801F0A8
:102068004DFDEFE76C4C000800B583B0034A01A9A9
:10207800FFF7E4FF03B05DF804FB00BF390D00086B
:1020880070B584B000285FD08C4616468646DDF8C9
:102098002140002C5ED0384A126C0F2A5ED8374A8D
:1020A80015686C4608AA07CA03C4227032466146FE
:1020B8007046FEF7F2FE044603694269103A03EBE4
:1020C8008203836002694369013B4FF0807142F8E3
:1020D8002310D0F8321002694369023B42F82310FA
:1020E80002694369033B264942F82310D0F83610A9
:1020F80002694369083B42F82310224E3046FFF735
:10210800D5FB4FEA501CC34303F01F0356F82C209D
:10211800012101FA03F3134346F82C3000B2A4F866
:102128000D00194B1B686362A5612173174A21468C
:102138001748FFF769FC21460F4B164A934217D000
:102148001A6882B10433F8E7134B144AC3211448C0
:10215800FEF794FD134801F0D1FC09E0124801F0A4
:10216800CDFC002404E01960034A136C01331364A6
:10217800204604B070BD00BF3C0000208003002052
:10218800AD120008840300207C030020E90B00083E
:10219800A80000207C000020884C00089C4C000807
:1021A800944A0008304C00084C4C000870B584B0C4
:1021B8009646EFF31082002A3DD106460D4672B6C8
:1021C800214CBFF35B8F54E8002F013244E8002113
:1021D8000029F8D1BFF35B8FEC4608AA07CAACE820
:1021E80003008CF80020724629463046FFF748FF66
:1021F800BFF35B8F54E8003F013B44E80032002AFC
:10220800F8D1BFF35B8FBFF35B8F2368BFF35B8F9E
:10221800002B16DD0D4B1B6890F8282052B293F85E
:1022280028305BB29A4204DA094A536843F0805373
:10223800536004B070BD074B074AF4210748FEF706
:102248001DFD62B6E6E700BF88430020800300203A
:1022580000ED00E0744A0008604C0008944A000849
:1022680070B584B0DDF82140002C59D09446354A29
:10227800126C0F2A58D8344A15686C4608AA07CA3F
:1022880003C42270624600213048FEF706FE044669
:1022980003694269103A03EB820383600269436968
:1022A800013B4FF0807142F82310D0F832100269D8
:1022B8004369023B42F8231002694369033B2449FE
:1022C80042F82310D0F8361002694369083B42F8F7
:1022D8002310204E3046FFF7E9FA4FEA501CC3435B
:1022E80003F01F0356F82C20012101FA03F31343CE
:1022F80046F82C3000B2A4F80D00174B1B68636237
:10230800A5612173154A21461548FFF77DFB214633
:102318000C4B144A934211D01A6852B10433F8E7AF
:10232800114801F0EBFB09E0104801F0E7FB00243D
:1023380004E01960034A136C01331364204604B0A7
:1023480070BD00BF3C00002080030020BD1B0008BA
:10235800AD120008840300207C030020E90B00086C
:10236800A80000207C000020304C00084C4C0008DD
:1023780010B584B09646EFF31082002A3CD172B6AD
:10238800214CBFF35B8F54E8002F013244E8002151
:102398000029F8D1BFF35B8FEC4606AA07CAACE860
:1023A80003008CF80020724600214FF00000FFF770
:1023B80057FFBFF35B8F54E8003F013B44E800320E
:1023C800002AF8D1BFF35B8FBFF35B8F2368BFF39D
:1023D8005B8F002B16DD0D4B1B6890F8282052B23E
:1023E80093F828305BB29A4204DA094A536843F0FA
:1023F8008053536004B010BD064B074AF4210748C8
:10240800FEF73CFC62B6E6E7884300208003002024
:1024180000ED00E0744A0008604C0008944A000887
:1024280070B584B0DDF82140002C59D09446354A67
:10243800126C0F2A58D8344A15686C4608AA07CA7D
:1024480003C42270624600213048FEF726FD044688
:1024580003694269103A03EB8203836002694369A6
:10246800013B4FF0807142F82310D0F83210026916
:102478004369023B42F8231002694369033B24493C
:1024880042F82310D0F8361002694369083B42F835
:102498002310204E3046FFF709FA4FEA501CC34379
:1024A80003F01F0356F82C20012101FA03F313430C
:1024B80046F82C3000B2A4F80D00174B1B68636275
:1024C800A5612173154A21461548FFF79DFA214653
:1024D8000C4B144A934211D01A6852B10433F8E7EE
:1024E800114801F00BFB09E0104801F007FB00243C
:1024F80004E01960034A136C01331364204604B0E6
:1025080070BD00BF3C000020800300206119000856
:10251800AD120008840300207C030020E90B0008AA
:10252800A80000207C000020304C00084C4C00081B
:1025380010B584B09646EFF31082002A3CD172B6EB
:10254800214CBFF35B8F54E8002F013244E800218F
:102558000029F8D1BFF35B8FEC4606AA07CAACE89E
:1025680003008CF80020724600214FF00000FFF7AE
:1025780057FFBFF35B8F54E8003F013B44E800324C
:10258800002AF8D1BFF35B8FBFF35B8F2368BFF3DB
:102598005B8F002B16DD0D4B1B6890F8282052B27C
:1025A80093F828305BB29A4204DA094A536843F038
:1025B8008053536004B010BD064B074AF421074806
:1025C800FEF75CFB62B6E6E7884300208003002044
:1025D80000ED00E0744A0008604C0008944A0008C6
:1025E80070B584B000285ED016468446DDF82140D8
:1025F800002C5ED0374A126C0F2A5ED8364A15680E
:102608006C4608AA07CA03C42270324600216046F5
:10261800FEF743FC044603694269103A03EB820360
:10262800836002694369013B4FF0807142F82310CF
:10263800D0F8321002694369023B42F8231002695C
:102648004369033B254942F82310D0F83610026944
:102658004369083B42F82310214E3046FFF726F91C
:102668004FEA501CC34303F01F0356F82C200121E6
:1026780001FA03F3134346F82C3000B2A4F80D0016
:10268800184B1B686362A5612173174A21461748D6
:10269800FFF7BAF921460F4B154A934217D01A682B
:1026A80082B10433F8E7134B134AC3211348FEF7EA
:1026B800E5FA134801F022FA09E0124801F01EFA7F
:1026C800002404E01960034A136C013313642046A4
:1026D80004B070BD3C00002080030020AD1200084B
:1026E800840300207C030020E90B0008A8000020D8
:1026F8007C000020884C00089C4C0008944A000884
:10270800304C00084C4C000830B585B01546EFF346
:102718001082002A3CD1864672B6214CBFF35B8FEB
:1027280054E8002F013244E800210029F8D1BFF312
:102738005B8FEC4608AA07CAACE803008CF80020B7
:102748002A4600217046FFF74BFFBFF35B8F54E822
:10275800003F013B44E80032002AF8D1BFF35B8F09
:10276800BFF35B8F2368BFF35B8F002B16DD0D4B28
:102778001B6890F8282052B293F828305BB29A422E
:1027880004DA094A536843F08053536005B030BDFA
:10279800064B074AF4210748FEF770FA62B6E6E7E7
:1027A800884300208003002000ED00E0744A000800
:1027B800604C0008944A000830B58BB00446184AAB
:1027C80007AB07CA03C31A7025460CB304AB0AAAA1
:1027D80012E9070003C31A706B4604AA07CA03C3A9
:1027E8001A70104B7F2200212846FFF78DFF0E4BF1
:1027F8009B687BB10C4B5A680C4B1A601B68022211
:102808001A730B4B01221A70FEF7C8FE0BB030BDCD
:10281800084DDBE7084B094A8B210948FEF72EFAD9
:1028280030480008A84C0008A800002080030020B9
:1028380078030020AD100008B04C0008C04C000818
:10284800C84C00082DE9F0418CB0FFF70BF80127C0
:102858008DF810704FF480713846FEF77DFBCDF887
:10286800110000248DF815408DF816708DF817406A
:102878008DF8184007AB04AE96E8070003C31A703A
:102888006B4607AD95E8070003C31A70364B22461E
:1028980036493748FFF78AFC8DF810704FF480717D
:1028A8003846FEF759FBCDF811008DF815408DF824
:1028B80016708DF817408DF818402B4696E80700DB
:1028C80003C31A706B4695E8070003C31A70294BB7
:1028D8003A4621464FF00000FFF74AFD8DF8107088
:1028E8004FF480713846FEF737FBCDF811008DF8AC
:1028F80015408DF816708DF817408DF818402B4646
:1029080096E8070003C31A701B4E6B4695E807004C
:1029180003C31A703346042221464FF00000FFF724
:1029280007FE0AAB154A92E8030083E8030085E82E
:102938000300134BBFF35B8F53E8002FD11943E813
:1029480000100028F8D1BFF35B8F403B43F832609A
:1029580003EBC2030B4A5A602046FFF72DFF2046BF
:102968000CB0BDE8F08100BFEC4C0008040000206A
:10297800E1190008F44C0008004D00083C48000824
:1029880074030020F10C000808B5FEF765F908BDCE
:1029980070470146002008E000EB8000531C0B60E4
:1029A800137803EB4003A3F130000A681378303B37
:1029B800DBB2092BF0D970472DE9F04F83B00546FB
:1029C8000E4693461F46DDF830A00D9CDDF8389082
:1029D8000F9B13F0030F19D1A046019208E002F1F2
:1029E800010B3B4631462020A84708F101085A460A
:1029F800C845F4D3DDF804B008E0013C02F1010851
:102A08003B4631461AF80400A8474246002CF4D148
:102A18000F9B13F0020F09D1104603B0BDE8F08FE9
:102A2800541C3B4631462020A8472246A2EB0B0304
:102A38004B45F5D3F0E72DE9F04385B099460C9D59
:102A48000D9C9DF83880DDF840E0119F129E16F02D
:102A5800020F21D17FB116F0010F0CD0B8F1000F91
:102A680002D116F00C0F06D0013F04E04FF0300CF5
:102A780005F804C00134744501D21F2CF6D916F0AC
:102A8800010F09D0BC4207D21F2C05D84FF0300CDB
:102A980005F804C00134F2E716F0100F14D016F44C
:102AA800806F04D11CB1744522D0BC4220D00F9B4A
:102AB800102B33D00F9B022B3DD01F2C0ED84FF07C
:102AC800300C05F804C001341F2C07D8B8F1000FEA
:102AD80039D04FF02D0C05F804C001340396029745
:102AE800019400954B46FFF767FF05B0BDE8F083FA
:102AF800B4F1010C1DD00F9B102B0ED064460F9B18
:102B0800102BD7D116F0200FD4D01F2CD2D84FF0CD
:102B1800580C05F804C00134CFE7023C16F0200F2A
:102B2800EDD11F2CEBD84FF0780C05F804C0013418
:102B3800C3E76446BBE71F2CD0D84FF0620C05F8FA
:102B480004C00134B9E716F0040F05D04FF02B0C80
:102B580005F804C00134C1E716F0080FBED04FF0E5
:102B6800200C05F804C00134B8E7F0B591B0169C04
:102B7800189D1B9E0CB926F0100616F4806E1DD009
:102B880064B34FF0000E19E016F0200F24D041274F
:102B9800BC445FFA8CFCACF10A0C5FFA8CFC0EF1B9
:102BA80001070EF1400EEE440EF820CCB4FBF5FC04
:102BB800AC4214D31F2F12D8BE466446B4FBF5FCB2
:102BC80005FB1C4C5FFA8CFCBCF1090FDCD80CF13E
:102BD800300C5FFA8CFCE2E76127D9E727460696B6
:102BE8001A9C0594199C049403959DF85C400294E2
:102BF800019708AC0094FFF71EFF11B0F0BD2DE956
:102C0800F04F95B009900A910B929846DDF878B08C
:102C1800DDF87C90229D239F269E5BEA090201D164
:102C280026F0100616F4806424D05BEA09022FD03F
:102C380000241FE016F0200F28D041231344DBB2F4
:102C48000A3BDBB204F1010A04F150020DEB020465
:102C580004F8203C2A463B4658464946FDF72EFFD5
:102C6800AB4579EB070915D3BAF11F0F12D85446B3
:102C7800834689462A463B4658464946FDF71EFF85
:102C8800D2B2092AD6D83032D3B2DBE76123D5E7EE
:102C98004FF0000A0696259B0593249B0493039501
:102CA8009DF880300293CDF804A00CAB0093434606
:102CB8000B9A0A990998FFF7BEFE15B0BDE8F08F88
:102CC8002DE9F04F91B082460C4693461D46DDE94A
:102CD8001A2310461946FDF777FE002800F00881F0
:102CE8004FF0FF32AE4BDDE91A01FDF795FE0028E3
:102CF80040F0FE804FF0FF326FF48013DDE91A01D7
:102D0800FDF76CFE002840F0F38000220023DDE987
:102D18001A01FDF763FE002840F0FD80DDE91A2363
:102D2800CDE906231E9B13F480630F9301D106237C
:102D38001C93DDE906010246079BC3F30A50C3F35F
:102D48001303904643F07F5949F44019A0F2FF302D
:102D5800FDF768FB82A3D3E90023FDF7CDFB82A32F
:102D6800D3E90023FDF712FA06460F4600228D4BE1
:102D780040464946FDF708FA7DA3D3E90023FDF74D
:102D8800BBFB02460B4630463946FDF7FFF9FDF717
:102D98004DFE0646FDF746FB8046894676A3D3E9F5
:102DA8000023FDF7A9FB00227F4BFDF7EFF9FDF7A4
:102DB8003DFE074672A3D3E9002340464946FDF786
:102DC8009BFB804689463846FDF72CFB6EA3D3E96A
:102DD8000023FDF791FB02460B4640464946FDF7A6
:102DE800D3F98046894602460B46FDF785FBCDE9B7
:102DF8000A0107F2FF3700210022CDE908123B053E
:102E080009930023089342464B4640464946FDF73E
:102E1800BDF9CDE90C0142464B4600204FF08041F8
:102E2800FDF7B2F9804689460022604BDDE90A01C8
:102E3800FDF78CFC00225E4BFDF7A8F902460B4615
:102E4800DDE90A01FDF782FC00225A4BFDF79EF9E5
:102E580002460B46DDE90A01FDF778FC02460B46FF
:102E680040464946FDF792F902460B46DDE90C015A
:102E7800FDF76CFC0022504BFDF788F9DDE90823CB
:102E8800FDF73AFB80468946CDE90889DDE9062346
:102E9800FDF7C2FD40B1013E0022454B4046494680
:102EA800FDF754FCCDE9080106F16303C62B3DD8B4
:102EB80004271E9B13F4006F42D035A3D3E90023E7
:102EC800DDE9068940464946FDF79CFD00283DD0CE
:102ED80031A3D3E9002340464946FDF77FFD00288A
:102EE80034D01C9BB34223DD9E1B731E1C9321E030
:102EF8001E9B04931D9B03931C9B0293DDE91A23DD
:102F0800CDE900232B465A462146504600F0C8F822
:102F180011B0BDE8F08F00220023CDE906231A9BEB
:102F280006931B9B03F100430793FBE60527C0E7C5
:102F380000231C931E9B43F480631E9300273E4688
:102F48001D9B9F423AD2A3EB070839E01C9B002B3C
:102F5800F6D00F9B002BF3D01C9B013B1C93EFE793
:102F6800FB799F501344D33FB3C8608B288AC63F70
:102F780061436F63A787D23F71A379094F930A40D2
:102F88001655B5BBB16B0240EF39FAFE422EE63F4B
:102F98002D431CEBE2361A3F0000000080842E41CE
:102FA800FFFFEF7F0000F83F0000E03F00002C40EB
:102FB80000002440000018400000F03F4FF00008D7
:102FC8001E9B13F0020902D00FB14FF000083EB16A
:102FD800DDE90823DDE90601FDF7B8FBCDE90601C7
:102FE80000220023DDE91A01FDF7F8FC00283DD195
:102FF8001E9B23F400630493CDF80C801C9B029362
:10300800DDE90623CDE900232B465A4621465046E2
:1030180000F046F8002F3FF47BAF1E9B13F0200F03
:103028002CD04FF0450C00F101082B4602462146F2
:103038006046D04786EAE672A2EBE672052305935E
:10304800013F0497002303930A230293F30F01938C
:1030580000922B46424621465046FFF786FDB9F1BD
:10306800000F3FF455AF02461D9F10E0DDE9060151
:10307800024601F10043CDE90623B9E74FF0650C9C
:10308800D1E7561C2B4621462020D0473246A2EBDA
:103098000B03BB42F5D310463AE700BF000000001F
:1030A8002DE9F04F97B007900C9192469B46DDE9C9
:1030B8002089229D42464B4640464946FDF784FCFE
:1030C800002840D04FF0FF326FF480134046494645
:1030D800FDF784FC002845D14FF0FF32AA4B40464B
:1030E8004946FDF799FC00284BD1A3A3D3E9002357
:1030F80040464946FDF790FC002858D1A0A3D3E9E3
:10310800002340464946FDF769FC00284FD10022BC
:10311800002340464946FDF761FC002855D10023AD
:103128000D93249B13F4806F5AD000241F2C59D878
:10313800092D57D904F158036B44302203F8202C89
:10314800013D0134F2E7249B0393239B029303235D
:1031580001938E4B00935B4652460C990798FFF7F4
:103168002BFC05E1249B0393239B029304230193E7
:10317800874B00935B4652460C990798FFF71CFC57
:10318800F6E0249B13F0040F0ED0824B04222499FE
:10319800039123990291019200935B4652460C9940
:1031A8000798FFF709FCE3E07B4B0322EFE7249B3A
:1031B8000493239B03930295CDE900895B4652460D
:1031C8000C990798FFF77CFDD2E042464B46002059
:1031D8000021FCF7D9FF8046894601230D93A0E71B
:1031E8000625A2E740464946FDF720FC0646FDF7BE
:1031F80019F902460B4640464946FCF7C5FF674B9E
:1032080003EBC503D3E90023CDE90823FDF774F9DF
:1032180002460B46CDE90A23FDF730FC0746FDF7C9
:10322800F1F802460B46DDE90A01FCF7ADFF02465C
:103238000B46CDE90A230022594BFDF7EDFB08B3F5
:1032480001373846FDF7DEF802460B46DDE908018E
:10325800FDF7CEFB08B1013600270DBB3046FDF760
:10326800E1F802460B4640464946FCF78DFF00222E
:103278004B4BFDF7B3FB002842D116F0010F3FD0AE
:1032880001363DE00022464BDDE90A01FDF7A6FBC9
:103298000028E2D117B117F0010FDED00137DCE7C3
:1032A8001F2C17D8013D3F4BA3FB0723DB0819460A
:1032B80003EB8303A7EB4303621C303304F158008C
:1032C8000DEB000404F8203C092F02D90F461446E0
:1032D800E6E714461F2C0AD86B1E45B104F15802C4
:1032E8006A44302102F8201C1D460134F2E71F2CE5
:1032F80006D804F158036B442E2203F8202C01341D
:103308001F2C17D8284A82FB0632F317C3EBA203F7
:103318001A4603EB8303A6EB4303611C303304F125
:1033280058000DEB000404F8203C16460AB10C4680
:10333800E6E70C46249B03F00303012B36D01F2C31
:1033480009D80D9B002B4ED004F158036B442D2255
:1033580003F8202C0134249B0393239B02930194AC
:103368000EAB00935B4652460C990798FFF724FB77
:1033780017B0BDE8F08F00BF0000000065CDCD415B
:103388000000000065CDCDC1FFFFEF7F404D000874
:10339800444D0008344D00083C4D0008884D000895
:1033A8000000E03FCDCCCCCC67666666239BB3B10A
:1033B8000D9B1BB9249B13F00C0F12D0239B013BD0
:1033C8002393194606E004F158036B44302203F8AE
:1033D800202C01348C42B2D21F2CF4D9AFE72399A8
:1033E800F8E72399F6E7249B13F0040F07D004F1BC
:1033F80058036B442B2203F8202C0134ABE7249BA1
:1034080013F0080FA7D004F158036B44202203F8E7
:10341800202C01349FE700BF2DE9F04F8FB0804684
:1034280017460D938946002900F04F83002508E0D0
:103438006C1C3B462A464946C0470D9B01330D93F9
:1034480025460D9B1878002800F042832528EFD1E7
:1034580001330D9300261FE046F0010601320D925C
:10346800012318E046F0020601320D92012312E012
:1034780046F0040601320D9201230CE046F00806DE
:1034880001320D92012306E046F0100601320D923A
:10349800012300E000234BB30D9A1378203B102B37
:1034A800F8D801A151F823F0853400089D340008AC
:1034B8009D340008913400089D3400089D340008AC
:1034C8009D3400089D3400089D3400089D34000890
:1034D8009D340008793400089D3400086D340008D4
:1034E8009D3400089D340008613400080A930D9B40
:1034F8001A78A2F13003DBB2092B18D92A2A1BD07B
:103508000A9B0B930D9B1A782E2A25D00D9A1378B7
:10351800683B122B5CD8DFE803F0495BAC5B3B5B94
:103528005B5B5B5B5B5B575B5B5B5B5BB1000DA8ED
:10353800FFF72FFA0B90E5E7189B1A1D18921B68E6
:10354800002B04DB0B930D9B01330D93DAE746F058
:1035580002065B420B93F6E746F480665A1C0D920E
:103568005A78A2F13003DBB2092B0CD92A2ACDD123
:10357800189B1A1D18921C6824EAE4730A930D9B81
:1035880001330D93C2E70DA8FFF703FA0A90BDE7D0
:1035980046F48071531C0D9353786C2B01D00E4662
:1035A80016E046F4407602320D9211E046F08001B2
:1035B800531C0D935378682B01D00E4608E046F053
:1035C800C00602320D9203E046F4807601320D9275
:1035D8000D9B1878672856D82528C0F06C82A0F172
:1035E8002503422B00F26782DFE813F05A026502D6
:1035F800650265026502650265026502650265028B
:10360800650265026502650265026502650265027A
:10361800650265026502650265026502650265026A
:103628006502650265026502650265028801680136
:103638008801650265026502650265026502650228
:10364800650265026502650265026502650265023A
:103658006502710065026502650265026502650220
:103668006502650265027100AF0171008801680199
:10367800880146F4007601320D92A9E746F4807677
:1036880001320D92A4E7782800F215826928C0F06B
:103698001282A0F16902D2B20123934049F2410299
:1036A800134214D113F0800F40F0DF8113F4806FC0
:1036B80000F00182189B1A1D1892D3F800A00A9BEB
:1036C800002B40F090814FF0FF32534674E16F2891
:1036D8003DD005D858283CD0622803D1022304E005
:1036E800782838D026F010060A23582835D06928BB
:1036F80003D0642801D026F00C0616F4806F01D0A0
:1037080026F0010669282BD0642829D016F4007FFA
:1037180040F0968016F4807F40F0AE8016F0400F9F
:1037280000F0BF80189A111D1891127805960B9910
:1037380004910A99039102930023019300923B4656
:103748002A4649464046FFF710FA054629E008236D
:10375800CBE71023C9E71023C7E746F02006C6E7E2
:1037680016F4007F21D116F4807F42D116F0400F65
:1037780058D0189A111D1891127882EAE271A1EBBB
:10378800E27105960B9804900A9803900293D20F61
:10379800019200913B462A4649464046FFF7E5F923
:1037A80005460D9B01330D934BE6189A073222F01C
:1037B800070202F1080118915168126808460029A9
:1037C80013DB08960B9C07940A9C06940493002329
:1037D8000593C90F0291009201903B462A4649463B
:1037E8004046FFF70CFA0546DBE7524261EB410021
:1037F800E7E7189A111D1891126882EAE271A1EBA5
:10380800E27105960B9804900A9803900293D20FE0
:10381800019200913B462A4649464046FFF7A5F9E2
:103828000546BEE716F0800F05D0189A111D1891AD
:10383800B2F90020A1E7189A111D189112689CE7A7
:10384800189A073222F0070202F108011891089627
:103858000B9907910A990691002104930591029109
:10386800D2E90023CDE900233B462A464946404693
:10387800FFF7C5F9054694E7189A111D18910596A2
:103888000B9904910A9903910293002301931368F9
:1038980000933B462A4649464046FFF766F90546E7
:1038A8007FE716F0800F04D0189A111D189112881E
:1038B8003CE7189A111D1891126837E746281AD064
:1038C800189B073323F0070303F1080218920496A4
:1038D8000B9A03920A9A0292D3E90023CDE90023B6
:1038E8003B462A4649464046FFF7DAFB05460D9B0C
:1038F80001330D93A5E546F02006E1E7672801D0DE
:10390800472801D146F40066452801D0472801D14F
:1039180046F02006189B073323F0070303F108023B
:10392800189204960B9A03920A9A0292D3E90023FA
:10393800CDE900233B462A4649464046FFF7C0F9F1
:1039480005460D9B01330D937BE516F002061CD04E
:1039580001241898031D189305F1010A3B462A46CD
:1039680049460078C047AEB90D9B01330D935546C3
:1039780067E5551C3B4649462020C04723462A4652
:103988005C1C9A45F5D81546E3E70123DDF82CA021
:103998002A46F5E75246DDF82CA006E0561C3B46C1
:1039A80049462020C0472C463246651CA245F5D81A
:1039B8009246D9E701330A46197811B1511E002AF7
:1039C800F8D1A3EB0A0316F4806B03D00A9A93424A
:1039D80028BF134616F0020407D00C940A9E2A4604
:1039E8005D469B4623E00A9A6FE6CDF830B02A463A
:1039F80025460B9C07E002F1010B3B464946202077
:103A0800C04733465A465E1C9C42F4D8DDF830B0B5
:103A18002C4633460C940A9E5D469B4607E01E469C
:103A28000AF1010A541C3B464946C04722469AF807
:103A3800000020B1002DF3D0731E002EEFD10C9C96
:103A480015465B461CB90D9B01330D93F9E40B9E9B
:103A580006E0551C3B4649462020C04723462A46D7
:103A68005C1C9E42F5D81546EDE746F02106189BEA
:103A78001A1D18921B680596082204920A9A039246
:103A8800102202920022019200933B462A464946A0
:103A98004046FFF76AF805460D9B01330D93D0E4C5
:103AA8006C1C3B462A4649462520C0470D9B0133DE
:103AB8000D932546C5E46C1C3B462A464946C0473B
:103AC8000D9B01330D932546BBE4DFF82080ADE460
:103AD800BD4208D37A1E3B4649460020C0472846C7
:103AE8000FB0BDE8F08F2A46F5E700BF9929000816
:103AF80000B9704708B5FDF7ABFE08BD0FB400B5B7
:103B080085B006AA52F8043B039200924FF0FF32A8
:103B180002A90448FFF780FC05B05DF804EB04B087
:103B2800704700BFF93A000882B0002100910B4BA2
:103B38005A6C42F480425A645A6C02F480420092F1
:103B4800009A01911A6C42F080521A641B6C03F0BF
:103B580080530193019B02B0704700BF00380240B8
:103B680008B500F0BBF8FEE7FEE7FEE7FEE7FEE774
:103B780070470000024B4FF000629A60704700BF28
:103B880000ED00E010B504460E4B1A784FF47A7336
:103B9800B3FBF2F30C4A1068B0FBF3F000F088F8BE
:103BA80068B90F2C01D901200AE0002221464FF004
:103BB800FF3000F06DF8054B1C60002000E001208C
:103BC80010BD00BFB8000020B4000020BC000020D9
:103BD80008B50B4B1A6842F400721A601A6842F46E
:103BE80080621A601A6842F480721A60032000F03A
:103BF8003DF80F20FFF7C6FFFFF796FF002008BD2E
:103C0800003C0240002808DB0901C9B200F160400D
:103C180000F5614080F80013704700F00F000901BB
:103C2800C9B2014B1954704714ED00E000B500F01B
:103C38000700C0F1070CBCF1040F28BF4FF0040CBB
:103C4800031D062B0FD9C31E4FF0FF3E0EFA0CF0D2
:103C580021EA000199400EFA03FE22EA0E0241EA27
:103C680002005DF804FB0023EEE70000074AD36872
:103C780023F4E0631B041B0C000200F4E060034320
:103C880043F0BF6343F40033D360704700ED00E0B6
:103C980010B50446054BD868C0F30220FFF7C6FFED
:103CA80001462046FFF7AEFF10BD00BF00ED00E063
:103CB8000138B0F1807F0BD24FF0E0235861054AFC
:103CC800F02182F823100020986107221A617047BA
:103CD8000120704700ED00E07047000008B5064B72
:103CE800DB6813F0800F00D108BDFFF7F5FF024B2A
:103CF80080229A73F8E700BF0038024010B4846845
:103D080091FAA1F39BB1B3FA83F35B004FF0030C74
:103D18000CFA03F324EA030391FAA1F149B1B1FAC9
:103D280081F149008A401343836010BC7047202307
:103D3800EBE72021F5E710B4C46891FAA1F39BB131
:103D4800B3FA83F35B004FF0030C0CFA03F324EA95
:103D5800030391FAA1F149B1B1FA81F149008A400E
:103D68001343C36010BC70472023EBE72021F5E71D
:103D780010B4046A91FAA1F39BB1B3FA83F39B00E0
:103D88004FF00F0C0CFA03F324EA030391FAA1F1A4
:103D980049B1B1FA81F189008A401343036210BC2A
:103DA80070472023EBE72021F5E710B4446A090A9D
:103DB80091FAA1F39BB1B3FA83F39B004FF00F0C78
:103DC8000CFA03F324EA030491FAA1F149B1B1FA18
:103DD80081F189008A401443446210BC7047202353
:103DE800EBE72021F5E710B4046891FAA1F39BB141
:103DF800B3FA83F35B004FF0030C0CFA03F324EAE5
:103E0800030391FAA1F149B1B1FA81F149008A405D
:103E18001343036010BC70472023EBE72021F5E72C
:103E2800F8B507460E460D6895FAA5F515B1B5FA29
:103E380085F51AE0202518E0B26821463846FFF7D4
:103E48005DFFF2687B6823EA040304FB02F2134374
:103E58007B6016E0726921463846FFF7A6FF726854
:103E680021463846FFF7BFFF0135346834FA05F2BA
:103E78001DD00122AA401440F6D07368013B012BE3
:103E8800DAD9326921463846FFF755FF7368022BA5
:103E9800E5D194FAA4F3002BDCD0B3FA83F3072B13
:103EA800D8D8726921463846FFF762FFD7E7002065
:103EB800F8BD0000034B9B68C3F30313024AD35CAD
:103EC800D840704700380240E04D0008034B9B681B
:103ED800C3F38223024AD35CD840704700380240BB
:103EE800D84D0008034B9B68C3F34233024AD35CA6
:103EF800D840704700380240D84D00080F4B5B6827
:103F080003F4800323B90E4B082803D00020704720
:103F18000C4BF9E7094A516801F03F01B3FBF1F096
:103F28005368C3F3881303FB00F05368C3F30143DA
:103F380001335B00B0FBF3F0704700BF003802406C
:103F48000024F40040787D0108B5084B9B6803F015
:103F58000C03042B05D0082B05D10820FFF7CEFF52
:103F680008BD0348FCE70348FAE700BF00380240F1
:103F780040787D010024F40010B50446FFF7E4FF03
:103F88002060FFF797FF6060FFF7A0FFA060606800
:103F9800FFF7A8FFE06010BD10B50446B2F5004F6A
:103FA8002FD04FF0000C48184CEB0C0C40184CF17B
:103FB800000C4FEACC0C4CEA507CC00040184FEA89
:103FC80083024FEA93734CF10001FCF777FD244913
:103FD800A1FB00235B091A0192B24FF0640C0CFBA1
:103FE80013031B013233A1FB0313C3F34F1303F075
:103FF800F0010A4492B203F00F0313449BB2A3608A
:1040080010BD4FF0000C48184CEB0C02401842F160
:104018000002D20042EA5072C000401842F100018A
:10402800DA184CEB0C03FCF749FD0D49A1FB002302
:104038005B091A0192B24FF0640C0CFB1303DB000E
:104048003233A1FB0313C3F34F13590001F4F87182
:104058000A4492B203F0070313449BB2A360CFE76C
:104068001F85EB51C36813F4005F01D0012070472E
:1040780030B585B004460D46C36823F4164323F0D3
:104088000C034A68C9680A4329690A43A9690A43AB
:104098001343C360AB68026922F4405213430361BF
:1040A8006B69426922F44072134343616846FFF723
:1040B80063FF164B9C4210D0154B9C4213D0154BF6
:1040C8009C4212D0144B9C4211D0144B9C4210D0ED
:1040D800134B9C420FD0012016E0039999B12B682D
:1040E8005BB9012010E00299F8E70299F6E7039915
:1040F800F4E70299F2E70299F0E7AA692046FFF788
:104108004BFF002000E0012005B030BD0010014049
:10411800004400400048004000140140004C0040AA
:1041280000500040DFF834D0002103E00C4B5B580E
:10413800435004310B480C4B42189A42F6D30B4AB1
:1041480002E0002342F8043B094B9A42F9D3FFF7F7
:1041580011FD00F0CDFAFEF775FB70470000022054
:10416800044E00080000002010010020100100206B
:10417800DC440020FEE700F0A9B9FFF7FCBF0128E6
:1041880038BF012010B50446204600F097F900B169
:1041980010BD00F007F808B900F088F98047F3E788
:1041A800FFF7EDBF024B1868BFF35B8F704700BF86
:1041B8008C4300202DE9F047089D0F4604468C46A5
:1041C800002B48D18A42164661D9B2FA82F34BB124
:1041D800C3F1200201FA03FC20FA02F29E4042EAEF
:1041E8000C0C9C404FEA164EB7B2BCFBFEF1220CF9
:1041F8000EFB11CC42EA0C4201FB07F0904209D9B0
:10420800B21801F1FF3C80F0EE80904240F2EB8062
:1042180002393244121AA4B2B2FBFEF00EFB10228D
:1042280044EA024400FB07F7A74209D9341900F110
:10423800FF3280F0DA80A74240F2D7803444023857
:1042480040EA0140E41B00211DB1DC400023C5E920
:104258000043BDE8F0878B4206D90DB1C5E90001DE
:1042680000210846BDE8F087B3FA83F1002948D158
:10427800BB4202D3824200F20781841A67EB030231
:1042880001209446002DE4D0C5E9004CE1E7002A5E
:1042980000F09280B2FA82F3002B40F0A8808A1ACC
:1042A8004FEA164E1FFA86FC0121200CB2FBFEF7DE
:1042B8000EFB172240EA02420CFB07F0904207D996
:1042C800B21807F1FF3802D2904200F2E280474666
:1042D800121AA4B2B2FBFEF00EFB102244EA02440A
:1042E8000CFB00FCA44507D9341900F1FF3202D2B7
:1042F800A44500F2CB801046A4EB0C0440EA07402A
:10430800A2E7C1F120068B4022FA06FC4CEA030C16
:1043180007FA01F420FA06F3F7404FEA1C49234351
:1043280000FA01F81FFA8CFEB7FBF9F01C0C09FB28
:10433800107744EA074400FB0EF7A74202FA01F29D
:104348000AD91CEB040400F1FF3A80F09B80A742D5
:1043580040F2988002386444E41B9FB2B4FBF9F33E
:1043680009FB134447EA044403FB0EFEA64509D99A
:104378001CEB040403F1FF3780F08280A6457FD947
:10438800023B644443EA0040A4EB0E04A0FB02E7AE
:10439800BC427346B94663D360D05DB1B8EB030243
:1043A80064EB090404FA06F622FA01F31E43CC4032
:1043B800C5E9006400214CE76208480842EAC17177
:1043C8000B0C43EA00438AB242EA0342B3FBF6F11C
:1043D800E407B4463746B6461F23B0FBF6F0D21BB7
:1043E80041EA004161E7614614E7104628E7C3F156
:1043F800200120FA01F29E4027FA01F19F403A433A
:104408004FEA164E1FFA86FCB1FBFEF70EFB17109B
:10441800110C41EA004107FB0CF8884504FA03F443
:104428003AD9711807F1FF3001D288451FD8A1EB9E
:104438000801B1FBFEF808FB0CF70EFB181192B24D
:1044480042EA0142BA422FD2B21808F1FF31C6D26D
:10445800BA42C4D2A8F102013244C0E7F0459CD266
:10446800BEEB020367EB0C070138B94695E7A6EBEC
:1044780008084144B81EB1FBFEF808FB0CF7DCE75E
:104488003B467FE7504667E70846FBE63444023878
:1044980032E7023F32441BE7A1EB08013846B1FB83
:1044A800FEF808FB0CF7C8E7414698E708B5062070
:1044B80000F0F2F8012000F0A9F90000024B0146D3
:1044C800186800F02DB800BFC0000020024B01465C
:1044D800186800F033B900BFC000002070B50F4E57
:1044E8000C463168054611B900F0F2F830602146F3
:1044F800284600F0EDF8431C03D14FF0FF34204666
:1045080070BDC41C24F00304A042F8D0211A284628
:1045180000F0DEF80130F2D1EFE700BF9043002051
:104528002DE9F843CD1C25F0030508350C2D38BFBF
:104538000C25002D064601DBA94204D90C23336063
:104548000020BDE8F883DFF8D48000F069F8D8F8D7
:1045580000301C4644BB29463046FFF7BFFF431CCA
:10456800044658D1D8F800402746002F43D1002CE4
:104578004BD023683946304604EB030900F0A8F80D
:10458800814542D121686D1A29463046FFF7A6FFBA
:1045980001303AD023682B442360D8F800305A6899
:1045A80062BBC8F800700FE02268521B20D40B2AA7
:1045B80017D96119A342256018BF5960636808BFFD
:1045C800C8F8001062514B60304600F02FF804F133
:1045D8000B00231D20F00700C21A1CBF1B1AA35092
:1045E800AFE76268A3420CBFC8F800205A60EBE747
:1045F80023466468AEE73C467F68B6E71A465B68C0
:10460800A342FBD100235360DEE70C23336030461E
:1046180000F00CF894E70560D6E700BF944300204B
:10462800014800F089B800BFD4440020014800F0D8
:1046380084B800BFD444002002440346934200D10A
:10464800704703F8011BF9E71F2938B505460C46E2
:1046580004D9162303604FF0FF3038BDC26B12B186
:1046680052F821304BB9284600F030F8224601466E
:104678002846BDE8384000F017B8012B0AD0591C6D
:1046880003D1162303600120E7E7002142F8241034
:10469800204698470020E0E7024B01461868FFF7DC
:1046A800D3BF00BFC000002038B5074D0023044623
:1046B800084611462B6000F093F8431C02D12B6882
:1046C80003B1236038BD00BFD044002000F080B89B
:1046D80038B5064D0023044608462B6000F088F8DC
:1046E800431C02D12B6803B1236038BDD04400209D
:1046F80070B50D4B0D4D5B1B9C100026A64209D1D1
:1047080000F086F80A4D0B4B5B1B9C100026A64256
:1047180005D170BD55F8043B98470136EEE755F8CA
:10472800043B98470136F2E7F84D0008F84D0008B9
:10473800F84D0008004E00087047704738B5054628
:10474800002941D051F8043C0C1F002BB8BFE418D5
:10475800FFF766FF1D4A136833B963601460284683
:10476800BDE83840FFF762BFA34208D92068211886
:104778008B4201BF19685B6809182160EDE71A468A
:104788005B680BB1A342FAD911685018A0420BD14B
:1047980020680144501883421160E0D118685B68B2
:1047A800536008441060DAE702D90C232B60D6E77F
:1047B800206821188B4204BF19685B68636004BFD6
:1047C800091821605460CAE738BD00BF944300202F
:1047D800024B58221A604FF0FF307047D044002037
:1047E800024B58221A604FF0FF307047D044002027
:1047F800044A05491368002B08BF0B46184410608B
:1048080018467047D8440020E0440020FEE700BF67
:10481800F8B500BFF8BC08BC9E467047F8B500BFA5
:08482800F8BC08BC9E46704775
:10483000002C01002080000000000000004D000856
:10484000F10C00085B4C4F475D3A20257328256426
:1048500029203C25733E3A20222573220A000000BD
:104860003C3C53544152545F4359424552424541A6
:10487000543E3E0A000000005B4C4F475D3A204C1E
:1048800061756E6368696E672067616D6520437945
:104890006265724265617420F09F8EB90A00000063
:1048A0003C3C53544152545F4359424552534E414C
:1048B0004B453E3E0A0000005B4C4F475D3A204CA2
:1048C00061756E6368696E672067616D6520437905
:1048D000626572536E616B6520F09F908D0A0000D7
:1048E0005B4C4F475D3A20496E636F72726563742B
:1048F00020436F6D6D616E642120436F727265633A
:10490000743A202767616D65206265617427206FA6
:1049100072202767616D6520736E616B65270A00E1
:104920005B4C4F475D3A205265626F6F74210A0AF3
:104930000A00000025732C20000000005B4C4F474C
:104940005D3A20496E76616C696420417267756DCD
:10495000656E74730A0000004465632032382032AB
:104960003032350031353A32383A343900000000FF
:1049700076302E34286265746129000020415F4141
:10498000202020202020205F202056657273696F30
:104990006E20402025730A6F272720295F5F5F5F05
:1049A0005F2F2F20204275696C6420202040202535
:1049B000732C2025730A20605F2F20204D4F532039
:1049C0002029202043686970202020204020257362
:1049D0002C2025730A20285F285F2F2D2D285F2F7C
:1049E000202020323032332D3230323520436F7068
:1049F0007972696768742062792045706C616E6BAA
:104A0000746F6E0A00000000436F727465782D4D5C
:104A1000342841524D7637452D4D290053544D339E
:104A200032463478780000007B0000007D0A0000E8
:104A3000506167652053697A65204572726F720014
:104A400070616C6C6F6300002E2F6170702F2E2EC2
:104A50002F636F72652F6B65726E656C2F64617466
:104A6000615F747970652F2E2E2F616C6C6F632ED1
:104A70006870700044697361626C656420496E748B
:104A800065727275707400007465726D696E617420
:104A9000650000002E2F6170702F2E2E2F636F7215
:104AA000652F6B65726E656C2F646174615F7479DC
:104AB00070652F2E2E2F7461736B2E68707000003E
:104AC0005B4C4F475D3A205461736B202725732759
:104AD000207465726D696E617465640A000000007F
:104AE000626C6F636B5F746F000000005B4C4F473C
:104AF0005D3A205461736B202725732720626C6F09
:104B0000636B65640A00000052454144590000008F
:104B100052554E4E494E4700424C4F434B45440080
:104B20005445524D494E415445440000494E56416A
:104B30004C4944002D2D2D2D2D2D2D2D2D2D2D2D80
:104B40002D2D2D2D2D2D2D2D2D2D2D2D2D2D2D2D95
:104B50002D2D2D2D2D2D2D2D2D0A00002023252D21
:104B6000326420252D31307320252D356420252DEC
:104B700039732025336425250A000000646F776EA1
:104B8000000000002E2F6170702F2E2E2F636F7289
:104B9000652F6B65726E656C2F646174615F7479EB
:104BA00070652F2E2E2F73796E632E687070000043
:104BB0003E2025730A0000005B4C4F475D3A2055AC
:104BC0006E6B6E6F776E20636F6D6D616E64202704
:104BD0002573270A00000000626C6F636B5F746FBF
:104BE0005F696E5F6F726465720000007265737555
:104BF0006D6500005B4C4F475D3A205461736B203C
:104C00002725732720726573756D65640A0000009F
:104C10005B4C4F475D3A204F6F70732120436F6D9F
:104C20006D616E6420746F6F206C6F6E67210A0077
:104C30005B4C4F475D3A205061676520416C6C6F5B
:104C400063204661696C6564210A00005B4C4F4734
:104C50005D3A204D6178207461736B73210A000006
:104C60006372656174655F696D706C005B4C4F4782
:104C70005D3A20556E6B6E6F776E207461736B209A
:104C8000272573270A000000666E2063616E277473
:104C9000206265206E756C6C0000000063726561B7
:104CA00074655F726177000069646C6500000000E4
:104CB0004C61756E6368204661696C656421000013
:104CC0006C61756E636800002E2F6170702F2E2E40
:104CD0002F636F72652F6B65726E656C2F736368DF
:104CE0006564756C65722E68707000007368656C21
:104CF0006C0000006C65642F746573740000000024
:104D000067616D65000000006C7300006B696C6C7E
:104D100000000000626C6F636B00000068656C70DF
:104D200000000000756E616D650000007265626FC5
:104D30006F740000666E692B00000000666E6900EB
:104D40006E616E00666E692D00000000084D00085F
:104D5000C51400080C4D000871200008144D00080F
:104D60002D200008EC4B0008E91F00081C4D00082E
:104D7000FD0D0008244D0008490D00082C4D0008C9
:104D8000FD0C000800000000000000000000F03FE3
:104D90000000000000002440000000000000594016
:104DA0000000000000408F40000000000088C34069
:104DB00000000000006AF8400000000080842E41DE
:104DC00000000000D01263410000000084D797412A
:104DD0000000000065CDCD41000000000102030489
:104DE000000000000000000001020304060708099B
:084DF000CCF3FF7F010000007D
:084DF800610B0008912900087D
:044E0000390B000862
:104E0400004400400000000000000000000000001A
:104E1400000000000000000000000000000000008E
:104E2400000000000000000000000000000000007E
:104E34000000000000000000F40100000000000079
:104E4400000000000000000000000000000000005E
:104E5400000000000000000000000000000000004E
:104E6400000000000000000000000000000000003E
:104E7400000000000000000000000000000000002E
:104E8400FFFF0000840000208400002000000000D8
:104E94009000002090000020000000009C000020F2
:104EA4009C00002000000000A8000020A8000020B2
:104EB400000000000024F4000100000010000000C5
:104EC400C40000200000000098430020004400209B
:104ED4006844002000000000000000000000000002
:104EE40000000000000000000000000000000000BE
:104EF40000000000000000000000000000000000AE
:104F0400000000000000000000000000000000009D
:040000050800412D81
:00000001FF
